:020020007B0063
:10000000000001130B2F0128FE2C82018B381230C7
:16002400022F800B1930002F80030012022F0928001715301130FE
:02002200343078
:20003A0082111D307A00000083128410830F840E001A20307A0000008512861087108810BF
:20005A00850F860E870E880E001A28307A00511D4D1F521F111FE02FAB011F2FAA01002FE9
:20007A00A901002FA801872FA601002FA701D001202C002A8030802F890B0A13890F6E0053
:20009A00F02C6B00A9018A0F800B890F00156C0000156C0000156C00A801E62F830B032F58
:2000BA00840B2038890F0428800B8A0F60008A0B800F890B8A0F800B890FFF29800F61006B
:2000DA0040184B30E02FA9011F2FA801D001202C002A4430842F850B452F860B012F870BBE
:2000FA00081328387330002FA901002FA801682F830B182F840B203844307A001C2F830107
:16011A00522C432C012C402C422C0F2C002C882C132C0B2C000248
:00000001FF
